:020000040800F2
:20000000F0FF01206DD0040849780408A1E20108E5D00408E5D00408E5D0040800000000EB
:200020000000000000000000000000004D780408517804080000000055780408A5C50108CE
:20004000E5D00408E5D00408E5D00408E5D00408E5D00408E5D00408D5AD0108DDAD0108FC
:20006000E5AD0108EDAD0108F5AD0108C5E70008D9E70008EDE7000801E8000815E8000849
:2000800029E800083DE80008E5D0040800000000000000000000000000000000FDAD0108A6
:2000A000E9DE010881DE0108F9DE010871DE0108A9DE0108B9DE0108C9DE01083DE10008CA
:2000C00035E100084DE1000845E10008E5D00408E5D004081DC5010829C50108000000003A
:2000E00005AE0108E5D00408FD9304080000000000000000000000000000000051E80008A6
:2001000000000000E5D00408D9DE0108E5D00408000000000000000000000000000000009D
:2001200065E8000879E800088DE80008A1E80008B5E800080000000000000000000000004E
:2001400000000000000000000000000059780408C9E80008DDE80008F1E8000835C5010858
:200160005DE1000855E10008000000000000000000000000000000000000000000000000FB
:2001800000000000E5D004080000000000000000E5D00408E5D00408C0CB0400010000008C
:2001A0001A0201003C000000105E0020D45D00200000000079DF0008D05D0020040008004E
:2001C0008000000010570020505E002000000000000000004C5E0020190201001000000054
:2001E000B8570020D45E00200000000065060108D05E0020081203000F000000A857002071
:20020000E85E002000000000098C0008E45E00201C0202001C000000EC540020FC5E002063
:2002200000000000D9DF0008F85E00202320010010000000E05800201C5F00200000000041
:2002400095450308185F0020384001000600000034590020305F0020000000001CD305084B
:200260002C5F0020031201003D000000A05900203C5F00200000000022D30508385F0020F3
:20028000010201000A0000001C5D0020805F002000000000658C00087C5F00200C020100B5
:2002A00004000000C8570020905F002000000000758C00088C5F0020FD1701009A00000029
:2002C0002C5D0020985F00200000000001C40308945F00201310010004000000C85D00200E
:2002E000386000200000000060D30508346000200202010003000000185D002040600020F5
:2003000000000000000000003C600020F5C1010074000000A05C0020486000200000000012
:20032000B5CF030844600020F62101000C00000000590020C06000200000000064D3050849
:20034000BC600020121201000400000064750020D06000200000000070D30508CC60002053
:20036000110201000800000068750020D86000200000000074D30508D4600020F83101003A
:2003800006000000F4580020E4600020000000007CD30508E0600020020001000C000000BC
:2003A00014580020F06000200000000000000000EC600020FE0101001400000070750020BC
:2003C0000061002000000000F18B0008FC600020061203001200000000580020186100205E
:2003E000000000000597000814610020F701010006000000A05700203061002000000000FD
:2004000082D305082C6100201A0001000E000000905700203C6100200000000088D3050878
:20042000386100201400010005000000BD550020506100200000000096D305084C610020A3
:20044000FD01010024000000325500205C6100200000000067900108586100201D020200FB
:20046000060000002C55002084610020000000000000000080610020F901010004000000D0
:20048000847500209061002000000000219001088C61002012300100100000001C55002087
:2004A00098610020000000009CD30508946100200B3001001A0000005C31002038720020C5
:2004C00000000000ACD30508347200201F50010024000000383100205872002000000000C3
:2004E000C8D30508547200202B0201000C0000007C1C00208072002000000000ECD305089E
:200500007C7200200A90010024000000102C00209072002000000000A94503088C72002079
:2005200006100100260000000C320020B872002000000000858C0008B47200202F20010027
:2005400022000000808C0020F087002000000000F8D305087C8C00200E02010002000000A3
:20056000007C0020A88C0020000000001AD40508A48C002021020100F0000000188500206F
:200580009888002000000000ADC90308AC8C00202C00040010000000088500202C8B00207E
:2005A000000000000D400308B08C002025201E002C010000DC830020008A002000000000CE
:2005C00000000000B48C00202B00120024000000987B0020588C0020000000001D400308BB
:2005E000B88C00202700010004000000487B0020C08C0020000000001CD40508BC8C0020B7
:200600000C5004008000000028760020C88C0020000000008D800208C48C0020031101002C
:200620000A0000001C7A00204C8D002000000000D92F0408488D0020292014007800000023
:20064000A4790020888900200000000000000000588D0020012001000C00000098790020C8
:20066000608D00200000000020D405085C8D00200E50040058020000A8760020708D00204C
:20068000000000000D3F03086C8D00201E1001000900000054790020CC8F0020000000004A
:2006A0002CD40508C88F00200D1001004C00000004790020148800200000000087970108CC
:2006C000D88F0020220201001C010000287A00203C8B002000000000F51A0108DC8F002005
:2006E000160215003F000000AC860020E48F00200000000099060108E08F00201F02080049
:20070000100000003890002028900020000000007506010824900020184001003800000020
:200720006079002060880020000000008D0C0108489000201B0201001000000060900020E0
:200740005090002000000000510601084C90002028020400040000007890002074900020BF
:20076000000000004506010870900020270204000400000084900020809000200000000070
:20078000390601087C9000201302010004000000389C0020C0A300200000000036D405083D
:2007A000BCA300203730010026000000989A0020C8A30020000000003AD40508C4A30020AD
:2007C0001B2001000C00000050A30020F4A30020000000006DBD0308F0A3002016200100E8
:2007E0000600000060A3002004A400200000000060D4050800A400201010010002000000E0
:200800008CA1002010A400200000000066D405080CA4002019000100050000006CA3002052
:2008200018A400200000000068D4050814A400202D02010001000000F8A5002004A6002003
:20084000000000000000000000A60020290201004000000034A400200CA60020000000009C
:200860006ED4050808A600200101010004000000E8A5002050A60020000000000000000091
:200880004CA600200001010004000000E4A5002058A6002000000000AED4050854A60020D0
:2008A0000201010003000000E0A5002060A60020000000007D8002085CA6002020520100CA
:2008C00008000000A0A5002068A6002000000000B2D4050864A600202A120100080000007B
:2008E00098A5002074A6002000000000BAD4050870A6002023320100140000000CB8002042
:2009000040C6002000000000C4D405083CC60020050201000400000034B8002058C6002094
:2009200000000000D8D4050854C600202C020100040000009CB8002080C6002000000000B7
:20094000DCD405087CC60020001201000A000000ECDF002044E70020000000000000000025
:2009600040E700200902010001000000C40401201805012000000000E0D405081405012001
:2009800001000000C00600202C7200200400000001000000F58F0008000000000000000021
:2009A000000000000000000000000000BC060020000000000400000001000000F9C8000887
:2009C000000000000000000000000000000000000000000086000000EC0100200000000084
:2009E000040000000100000085C8000800000000000000000000000000000000000000009D
:200A0000C4060020307200200400000001000000898F000800000000000000000000000005
:200A200000000000000000009700000040020020000000000300000001000000E58F00083D
:200A400000000000000000000000000000000000000000001B0000006C02002000000000ED
:200A60000300000000000000000000000000000000000000080000000100000019900008B9
:200A80000000000000000000000000000000000000000000B80600202872002004000000BA
:200AA000010000000DDA00080000000000000000000000000000000000000000B40600206C
:200AC000000000000400000001000000F9C800080000000000000000000000000000000048
:200AE00000000000B00600200000000002000000000000000000000000000000000000001E
:200B000008000000010000002990000800000000000000000000000000000000000000000B
:200B2000AC060020000000000400000001000000F9C8000800000000000000000000000015
:200B40000000000000000000A40000000000000000000000000004010000020001000002E7
:200B6000100000000700000000010000204E000000000000000000000101010060FECD00C1
:200B80000009185006000000D007000002040C000107186007000000A00F000003040E00AA
:200BA00002051870070000000A1A000004040C000302188007000000204E000005020C0042
:200BC000000997FF8106C409C40903008813010794FFE40CB80BC40906008813020590FF65
:200BE000EF16AC0DC4090A00881303028DFF2E2AA00FC409000088137EFF7EFFE2FFE2FF09
:200C0000FF0000000060024010600240000000000000000000000000000B00000000000076
:200C200000000000000000000060024028600240010000000000000000000000060C000035
:200C400000000000000000000000000000600240406002400200000000000000000000000E
:200C6000100D000000000000000000000000000000600240586002400300000000000000B8
:200C800000000000160E000000000000000000000000000000600240706002400400000078
:200CA0000000000000000000200F0000000000000000000000000000006002408860024039
:200CC000050000000000000000000000261000000000000000000000000000000060024037
:200CE000A0600240060000000000000000000000301100000000000000000000000000006B
:200D000000600240B8600240070000000000000000000000362F000000000000000000006B
:200D200000000000006402401064024000000000000000000000000000380000000000001F
:200D40000000000000000000006402402864024001000000000000000000000006390000DF
:200D60000000000000000000000000000064024040640240020000000000000000000000E5
:200D8000103A00000000000000000000000000000064024058640240030000000000000062
:200DA00000000000163B000000000000000000000000000000640240706402400400000022
:200DC0000000000000000000203C00000000000000000000000000000064024088640240E3
:200DE0000500000000000000000000002644000000000000000000000000000000640240DE
:200E0000A06402400600000000000000000000003045000000000000000000000000000011
:200E200000640240B86402400700000000000000000000003646000000000000000000002B
:200E400000000000FF00E001FF080000F401000000000000000000000000000001000000B5
:200E600000000000000000000000000000000000010000000000000001000000000101016D
:200E800000FF000038F604086CF60408A0F60408FFFFFFFF8300FFFF1A0000008200FFFFF2
:200EA0001D0000008200FFFF1700000015000000FFFF0000FFFFFFFF010000003DC6010862
:200EC000FFFFFFFF786A0508000008020503030000000000846A0508010008020504030000
:200EE00000000000906A0508000008020503030000000000986A05080100080205040300B0
:200F000000000000605F05080200FE0101100300000000001C5B0508030014020003000050
:200F200000000000A06A050804001F020200080000000000A86A050805001F02020108001B
:200F4000000000007D000000346B0508A06E0508000000001D1D0208A086010004000000DE
:200F6000346B0508BCB5050800000000F5910108E803000004000000E8570508000000007D
:200F800000000000E9BF02087D000000FF000000D85B05080000000000000000C5C902084B
:200FA0007D000000FF00000094C005080000000000000000790F03087D000000FF00000045
:200FC000346F0508000000000000000035980108E803000003000000BC5D05080000000077
:200FE000000000008905030810270000030000009C6A050800000000E141030805F10108DF
:201000005F76000005000000207105080000000000000000CD9701081027000002000000B2
:20102000C4B505080000000000000000C9910108E803000005000000D0B505080000000045
:2010400000000000CD880208204E000003000000E0B50508000000000000000045EB0208E4
:20106000204E000003000000F0B50508000000000000000055EA0108400D030003000000B2
:20108000186C05080000000000000000A5EE01081027000002000000C86E050800000000A7
:2010A000000000004DE00308102700000300000000B60508000000000000000061C90108C8
:2010C0001027000003000000285A05080000000000000000F991010810270000020000007B
:2010E000287105080000000000000000CDBE0108A00F0000020000000CB605080000000036
:2011000000000000751004081027000002000000206C0508000000002FC40308D51D040870
:201120008545010002000000E85905080000000000000000D52D040810270000020000004D
:20114000B46E05080000000000000000F19F030850C300000200000018B6050800000000D5
:2011600000000000253B0408400D03000100000020B605080000000000000000210404089E
:2011800050C30000030000002CB605080000000000000000FD7F020840420F000100000032
:2011A00038B605080000000000000000BDBD010850C300000100000044B605080000000096
:2011C00000000000F95A04081027000002000000995404089D3404087D53040800000000C5
:2011E000CD340408CD540408154A0408ED4904080000000000000000C1340408ED530408BB
:201200005D3404086D510408000000002D34040835480408D5480408C5490408000000002E
:2012200000000000513404080000803F0000000000000000000000000000803F000000009F
:2012400000000000000000000000803F000000000000000000000000213504082535040807
:201260002935040835350408393504082D35040831350408F1340408153504084D3704081D
:2012800039370408613704087537040889370408FFFFFFFFFFFFFFFF591D02080000000032
:2012A000000000000000000069D30108000000000000000000000000000000006CC6002097
:2012C00008000000000000005CC6002008000000FFFFFFFF0100000061EE01080000000067
:2012E00000000000000000000000FA430000FA430000803F000000000000000000000000B5
:201300000000000000000000000000000000000000000000000000000000803F01F11F3FBE
:20132000D0CE0020DECE002000FF00000000000000000000C14F0308000000000000000009
:201340002436050801000000000000000000000000000000983A0508000000000000000046
:2013600000000000503B0508000000000000000000000000FC3A05085DB403080000000076
:2013800000000000FC390508493A0408000000000000000070390508216703080000000033
:2013A00000000000283905080000000000000000E1660308F5CA00202969030800000000F1
:2013C000000000000C4E050801000000FA0000000100000001000000012D202D2D202D2D87
:2013E0002D2D202D2D2D00000000000000000000000000000000000001010000DCC8002026
:2014000088136F1701000000DEC8002088136F1700000000E0C8002088136F1701000000D9
:20142000E2C8002088136F1700000000714F03080000000000000000903605082DCB00200B
:2014400001000000E4360508E5C8002001000000F03605088CC9002002000000F8360508B1
:20146000994F03080000000000000000043705080000000000000000000000005837050895
:20148000000000000000000000000000C8370508DAC800200200000010380508E0CD00205A
:2014A000E0150C1700000000C0120000A2CE00200000000000000000A0CE00200000000024
:2014C000000000009ECE002000000000000000009CCE002000000000000000009ACE00206E
:2014E000000000000000000098CE00200000000000000000C00C002000000000000000007A
:20150000E4C8002003000000003805080000000000000000000000001C380508A6CE0020C2
:20152000E0150C1700000000A8CE002002000000103805082D202D2D202D2D2D2D202D2DB1
:201540002D2D00000000000000000000000000000000000000000000000000000000000031
:2015600054380508AACE00209CFF2C0100000000BACD0020E0150C170000000024CD0020A2
:2015800002000000103805082D202D2D202D2D2D2D202D2D2D2D00000000000000000000A5
:2015A00000000000000000000000000000000000000000008C38050882C7002000FF0100F1
:2015C00081C7002000FF010080C7002000FF01007FC7002000FF01007EC7002000FF010071
:2015E0007DC7002000FF01007CC7002000FF0100014703083D47030800000000983B050862
:201600009CC70020053201009AC70020E803D0070100000098C70020E803D0070100000089
:2016200096C70020E803D0070100000094C70020030F010092C700201900F4010100000054
:2016400090C700200500F401010000008EC70020003C01008CC700200000B80B010000002F
:201660008AC7002002FF010088C700203200C4090100000087C700200064010086C7002048
:2016800002000000DC06050884C700201400E80301000000D2C7002000C80100D1C70020B4
:2016A00000500100D0C70020005A0100CEC7002002000000200305081CBC050824BC05080E
:2016C00022CA00200100C4090000000020CA00200100C409000000001ECA00200100C40982
:2016E000000000001CCA00200100C4090000000018CA00200100C409000000001ACA002042
:201700000100C4090000000016CA00200100C4090000000014CA00200100C4090000000061
:20172000BBC8002000C80100BAC8002000C80100B8C800200000FFFF0A000000B6C800208C
:201740000100C80001000000B4C800203200307532000000B2C80020E2FF14000500000086
:20176000B0C800207EFF140005000000AEC8002005002C0105000000ACC80020055A050076
:20178000C1C8002000FF0100BFC8002002000000D00E0020BDC8002003000000243C0508E4
:2017A000C0C8002000FF0100BEC8002002000000D00E0020BCC8002003000000243C0508C7
:2017C0009CC90020FF7F010098C9002000000000FFFFFFFF0100000094C90020000000000A
:2017E000FFFFFFFF0100000090C9002000000000FFFFFFFF0100000079470308E547030874
:2018000000000000343C050874C70020EE02CA080100000072C7002000C8010064000000A7
:2018200071C7002002C801006400000070C70020020000004C040508D8C800200000803EED
:2018400005000000D6C8002080C1803E05000000D4C800200083007D05000000D2C8002046
:2018600080C1803E05000000D0C8002000FF0100CEC800206400F40101000000CCC80020E8
:201880006400F40101000000CAC800206400F40101000000C8C8002004000000C806050853
:2018A000C7C8002002000000BC0605080BC800200D000000D402050808C800200064010070
:2018C00006C80020320010270A00000005C800200D000000D402050804C800200D000000D1
:2018E000D402050803C80020020000000C03050801C8002003000000403D050800C800209E
:2019000003000000403D0508F4C70020000A0100F2C700200000E80301000000F0C70020B8
:201920000000E80301000000EEC70020000A0100ECC700200000E80301000000EAC700204B
:201940000000E80301000000E2C70020C800E80301000000E8C700201400FA000100000040
:20196000E6C700200100E80301000000E4C7002000050100E0C7002002000000D003050833
:20198000DEC700200000F40101000000DCC700200000F40101000000DAC700200000F4011D
:2019A00001000000D8C700200000F40101000000D6C700200000E80301000000D4C700200D
:2019C0000000E80301000000CDC70020006401000A000000CCC70020006401000A000000D6
:2019E000BBC7002019640100BAC7002002000000C4030508AFC7002000640100AEC70020C0
:201A000000640100B6C70020006401000A000000B5C70020006401000A000000B4C70020AF
:201A2000006401000A000000B9C7002000FF01000A000000B8C7002000FF01000A000000E4
:201A4000B7C7002000FF01000A000000B3C7002001FF01000A000000B2C7002001FF01009F
:201A60000A000000B1C7002001FF01000A000000FEC700200000F40101000000FCC70020FB
:201A80000000E80301000000FAC700200000E80301000000F8C700200000E80301000000C2
:201AA000F6C700200000E80301000000A0CB0020E803D0070A0000009FCB00200064010017
:201AC0000A0000009ECB00200096010095CB002000C8010094CB00200064010093CB002031
:201AE0000064010092CB00200064010091CB00200064010090CB0020FF0801008FCB0020C1
:201B0000016401000D4903085149030800000000503D050898CB00200132010097CB002086
:201B2000010000009803050896CB002004000000A00305088ECB0020009601008DCB00203F
:201B4000006401008CCB002000FA0100640000008BCB00200A5A01008ACB002000C8010031
:201B600089CB002000C8010088CB002000C801009BCB0020003201009DCB00200014010096
:201B80009CCB0020004B01009ACB002004000000A002050899CB0020006401000A00000047
:201BA000A9C700200AC805000A000000A8C700200100000058070508ABC700200AC805004F
:201BC0000A000000AAC700200100000058070508A0C7002000C805000A000000A7C7002011
:201BE00000C805000A000000A1C7002000C805000A000000A2C7002000C805000A0000004F
:201C0000A5C7002000C805000A000000A6C7002000C805000A000000A4C7002000C80500A5
:201C20000A000000A3C7002000C805000A0000009FC70020020000007002050886CB0020C1
:201C40000000D0070100000081CB002000C8010080CB002000C801007FCB002000C8010010
:201C600084CB00200000D007010000007ECB002000C801007DCB002000C801007CCB002053
:201C800000C8010082CB00200000D007010000007BCB002000C801007ACB002000C80100D9
:201CA00079CB002000C8010000C805080000000000007CCE00200CC80508070800000000C8
:201CC000B814002014C80508070800000000B01400201CC80508070800000000A814002060
:201CE00024C805080808000000009C1400202CC805080708000000009414002034C805082A
:201D00000708000000008C1400203CC805080708000000008414002044C8050808080000F3
:201D20000000781400204CC805080710000000007014002054C8050807100000000068145F
:201D400000205CC805080710000000006014002064C8050808100000000054140020E4B911
:201D600005080100000000000000000000000000100000000000000000000000354C0308B9
:201D8000454C030809600308C03D050811C80020005A010010C8002000C801000EC800201E
:201DA000E803D007010000000000000000000000DD9303085C3E0508C6C80020030000008D
:201DC00060020508C5C8002000030100C4C8002000030100D94C03082D4D0308000000007E
:201DE000A43E0508814D0308C14D0308000000004C3F0508C14C0308796A03080000000064
:201E0000CC3F0508C2C800200103010079500308A150030800000000404305085D460308ED
:201E20008546030800000000C0430508414E0308A14E03080000000030440508E54B03086C
:201E400081AD030800000000E84405084D4B03080000000000000000904505080D4A030829
:201E6000794A030800000000F445050895490308D149030800000000AC4605087DB9030800
:201E8000D94803080000000038470508F3CA0020030000006CCE0020DD4A0308194B0308AF
:201EA0000000000034480508C1B903085980030800000000A448050851480308056803081B
:201EC000000000003C4A050821B903081980030800000000C0140020F4CA00200300000011
:201EE00028CE0020614C0308914C030800000000484B0508B166030800000000000000006A
:201F0000AC4B0508094E0308956A030800000000484C0508000000000000000000000000B0
:201F2000E44C050895B80308D167030800000000544D0508000001FFFFFFFFFF0000803F60
:201F4000FF01010101AA55070100001401000000FF00000009024300020100C03209040013
:201F600000010202010005240010010524010001042402020524060001070582030800FF02
:201F800009040100020A00000007050102400000070581024000000009026400030100C0D6
:201FA000320904000001030000000921110100012236000705830309000A080B010202028A
:201FC00001000904010001020201000524001001052401000204240202052406010207051C
:201FE00082030800FF09040200020A00000007050102400000070581024000001201000207
:020000040800F2
:20200000EF02014083045632000201020301000012010002020200408304405700020102FA
:2020200003010000040309040101AA55050100000800000005010905A101A10005010930E3
:2020400009310932093309350934093609371581257F750895088102050919012908150090
:202060002501950875018102C0C0000009022200010100E0320904000001030102000921A5
:20208000110100012236000705830309000AAA550902000000AA5503009F00000100000084
:2020A000AA550B010000AA5505010000FF00000000000000010203040102030406070809DF
:2020C000814F0408215004085D4A0408FD3304089D530408E1330408C93304080D34040847
:2020E0001D3404080000000000000000081900200000000000000000000000000000000042
:202100000000000000000000000000000000000000000000000000000000000000000000BF
:2021200000000000000000000000000000000000000000000000000000000000000000009F
:2021400000000000000000000000000000000000FFFFFFFFFFFFFFFFFFFFFFFFFFFFFFFF8F
:20216000FFFFFFFFFFFFFFFFFFFFFFFFFFFFFFFFFFFFFFFFFFFFFFFFFFFFFFFFFFFFFFFF7F
:20218000FFFFFFFFFFFFFFFFFFFFFFFFFFFFFFFFFFFFFFFFFFFFFFFFFFFFFFFFFFFFFFFF5F
:2021A000FFFFFFFFFFFFFFFFFFFFFFFFFFFFFFFFFFFFFFFFFFFFFFFFFFFFFFFFFFFFFFFF3F
:2021C000FFFFFFFFFFFFFFFFFFFFFFFFFFFFFFFFFFFFFFFFFFFFFFFFFFFFFFFFFFFFFFFF1F
:202800000828000800400008232042657461666C696768740A626F6172645F6E616D6520C9
:202820004245544146505646345358313238300A6D616E7566616374757265725F6964203D
:20284000424546480A7265736F75726365204245455045522031204131340A7265736F75CF
:20286000726365204D4F544F522031204230380A7265736F75726365204D4F544F522032DD
:20288000204130300A7265736F75726365204D4F544F522033204231300A7265736F757294
:2028A0006365204D4F544F522034204230370A7265736F75726365204D4F544F52203520EA
:2028C0004130380A7265736F75726365204D4F544F522036204131300A7265736F75726307
:2028E00065204C45445F53545249502031204230310A7265736F7572636520534552494173
:202900004C5F54582031204130390A7265736F757263652053455249414C5F545820322076
:202920004130320A7265736F757263652053455249414C5F5458203131204130380A72656B
:20294000736F757263652053455249414C5F52582031204131300A7265736F757263652058
:2029600053455249414C5F52582032204130330A7265736F757263652053455249414C5FC7
:202980005258203131204130380A7265736F75726365204C45442031204331340A7265736E
:2029A0006F75726365205350495F53434B2031204130350A7265736F757263652053504918
:2029C0005F53434B2032204231330A7265736F75726365205350495F53434B2033204230FC
:2029E000330A7265736F75726365205350495F4D49534F2031204130360A7265736F7572CD
:202A00006365205350495F4D49534F2032204231340A7265736F75726365205350495F4D08
:202A200049534F2033204230340A7265736F75726365205350495F4D4F534920312041309B
:202A4000370A7265736F75726365205350495F4D4F53492032204231350A7265736F757266
:202A60006365205350495F4D4F53492033204230350A7265736F75726365204144435F42D6
:202A80004154542031204130310A7265736F75726365204144435F43555252203120423062
:202AA000300A7265736F75726365204F53445F43532031204231320A7265736F75726365F1
:202AC0002052585F5350495F43532031204131350A7265736F757263652052585F5350494D
:202AE0005F455854492031204331330A7265736F757263652052585F5350495F42494E4422
:202B00002031204230320A7265736F757263652052585F5350495F4C4544203120433135CB
:202B20000A7265736F757263652052585F5350495F455850524553534C52535F5245534506
:202B4000542031204230390A7265736F757263652052585F5350495F455850524553534CA9
:202B600052535F425553592031204131330A7265736F75726365204759524F5F455854498C
:202B80002031204230360A7265736F75726365204759524F5F43532031204130340A746957
:202BA0006D657220423031204146320A74696D657220423038204146320A74696D6572201C
:202BC000413030204146310A74696D657220423130204146310A74696D65722042303720A2
:202BE0004146320A74696D657220413038204146310A74696D657220413130204146310A81
:202C0000646D6120414443203120300A646D612070696E2042303120300A646D612070690E
:202C20006E2042303820300A646D612070696E2041303020300A646D612070696E20423122
:202C40003020300A646D612070696E2042303720300A646D612070696E2041303820300A72
:202C6000646D612070696E2041313020300A6665617475726520534F465453455249414C97
:202C80000A666561747572652052585F5350490A666561747572652054454C454D455452B1
:202CA000590A66656174757265204C45445F53545249500A66656174757265204F53440AD9
:202CC0007365742072785F7370695F627573203D20330A7365742072785F7370695F6C655F
:202CE000645F696E76657273696F6E203D204F4E0A736574206473686F745F6275727374F3
:202D0000203D204155544F0A736574206473686F745F62697462616E67203D204F46460ACD
:202D20007365742063757272656E745F6D65746572203D204144430A736574206261747442
:202D40006572795F6D65746572203D204144430A7365742069626174615F7363616C652064
:202D60003D203830300A736574206265657065725F696E76657273696F6E203D204F4E0A15
:202D8000736574206265657065725F6F64203D204F46460A7365742073797374656D5F68E8
:202DA00073655F6D687A203D20380A736574206D6178373435365F7370695F627573203D95
:202DC00020320A736574206779726F5F315F62757374797065203D205350490A7365742090
:202DE0006779726F5F315F737069627573203D20310A736574206779726F5F315F73656E73
:202E0000736F725F616C69676E203D20435739300A736574206779726F5F315F616C6967B1
:202E20006E5F796177203D203930300A73657420657870726573736C72735F646F6D616924
:202E40006E203D2049534D323430300A666561747572652052585F53455249414C0A736517
:202E6000742073657269616C72785F70726F7669646572203D204352534600FFFFFFFFFFE4
:202E8000FFFFFFFFFFFFFFFFFFFFFFFFFFFFFFFFFFFFFFFFFFFFFFFFFFFFFFFFFFFFFFFF52
:202EA000FFFFFFFFFFFFFFFFFFFFFFFFFFFFFFFFFFFFFFFFFFFFFFFFFFFFFFFFFFFFFFFF32
:202EC000FFFFFFFFFFFFFFFFFFFFFFFFFFFFFFFFFFFFFFFFFFFFFFFFFFFFFFFFFFFFFFFF12
:202EE000FFFFFFFFFFFFFFFFFFFFFFFFFFFFFFFFFFFFFFFFFFFFFFFFFFFFFFFFFFFFFFFFF2
:020000040800F2
:20400000AFBE42001A020000000000000000000000000000000000000000000000000000D5
:20402000000000000000000042454648004245544146505646345358313238300000000073
:204040000000010086000400000000000000000000000000000000000000000000000000D5
:20406000000000000000000000000000000000000000000000000000000000000000000040
:20408000000000000000000000000000000000000000000000000000000000000000000020
:2040A000000000000000000000000000000000000000000000000000000000000000000000
:2040C000000000000000000000001600190200001300000000000000001F03223F013D00DB
:2040E000150008020100151617FFFF2D2E2FFFFF232425FFFF22001C020000000201140017
:20410000002602000000008403010200000000000100000000000016002300020019000098
:2041200000D5FF240009000100000000000C003800040000642C01640043000302010000F7
:2041400000000000000000000000000000000000000000000000000000000000000000005F
:2041600000000000000000000000000000000000000000000000000000000001100001022B
:204180000000000000000200000000000A000C020000012C0200A000FD070100E4008209C2
:2041A000ED084E00CE00EA00970958098B092209EA007601EA00EA00EA00EA00EA00EA0067
:2041C000EA00EA00EA002939EA00EA00EA00EA00EA00EA00EA00EA00EA00EA00EA00EA00C7
:2041E000EA00EA00EA00EA00EA00EA00B600EA00EA00EA00EA00EA006209EA00EA00EA00D2
:20420000EA00EA00EA00EA00EA004209EA002300EA00EA00CD00EA00EA00EA00EA00EA0081
:20422000EA00EA00EA00EA00EA00EA00EA00EA00EA00EA00EA000A001300010000044512F7
:204240000900020200000000007A00F5010C00980864001401000A010A0000FF1F00001475
:204260002800002C3700000000FFFFFFFF460001020000000000000000000000000000006E
:2042800000000000000000000000000000000000000000000000000000000000000000001E
:2042A00000000000005000C4FF040000FFFFFFFF0100000005180B0C0000000001C80041AC
:2042C0001E0D001200F60102000000000001000000000000000A0012020100FFFFFFFF0E7E
:2042E000001102000000000000010101010C00F80103000101F40114001200020000000080
:2043000000000000000000000000001A00FE01000001110000012000000100000000000050
:204320000000FFFF001800060201000000000020030000000020030000000020030C00F7F2
:204340000100001E010000000014001A0000007E05EA05B4053200E803D00700000B0014D1
:2043600000000003010023002A00FD0100001912000000000000000018001A13000000007E
:204380000000000018000000000000000000000000000C001D0200000000000000000A00D0
:2043A000F90100003E00000016001200030000003D01000105533431310000080200200043
:2043C0000B000300B3014A015E012C0164010100000001000A019A01001E0A0000022A00E3
:2043E0001F000500000000000001000100050000010203000000000000000000000000008C
:20440000000000000080170012002B020000291D0000CB6B6CE8010000FF2A000A000900B9
:20442000300000000000580200000000000000000000020000029E077D002C015802000144
:20444000050178002C0006000100E00106000002010028102A27181A000000010000010202
:20446000030405060700B0042E04D007E8030C0028002F000200436574757320580000009A
:2044800000000000000000000000000000000000000000000000000008000E020000000004
:2044A000F6002102000000520000105200000000000000000000000000000000000000002F
:2044C0000000000000000000000000000000000000000000000000000000000000000000DC
:2044E0000000000000000000000000000000000000000000000000000000000000000000BC
:2045000000000000000000000000000000000000000000000000000000000000000000009B
:20452000000000000000000000000000FFFF000000FF1E0000FF3C0000FF5A0000FF780055
:2045400000FF960000FFB40000FFD20000FFF00000FF0E0100FF2C0100FF4A0100FF0000D0
:20456000000000000000010B020D0A03050B030D0A030A0B040D0A03080B040D0A03070B70
:20458000030D0A03000000000000060A0100000203060000000316002C000000E803D007DB
:2045A000E803D007E803D007E803D00732012500020000000000000000000000000000005B
:2045C0000000000000000000000000000000000000000000000000000000000000000000DB
:2045E0000000000000000000000000000000000000000000000000000000000000000000BB
:2046000000000000000000000000000000000000000000000000000000000000000000009A
:2046200000000000000000000000000000000000000000000000000000000000000000007A
:2046400000000000000000000000000000000000000000000000000000000000000000005A
:2046600000000000000000000000000000000000000000000000000000000000000000003A
:2046800000000000000000000000000000000000000000000000000000000000000000001A
:2046A0000000000000000000000000000000000000000000000000000000000000000000FA
:2046C0000000000000000000000000000000000000000000000000000000000000002A00B0
:2046E0002B000000001E001E001E0005011E011E011E011E011E011E011E011E011E011EFA
:20470000011E011E011E011E0A00270000002003000086000C0005003200030707070000E8
:20472000004141410064CE07CE07CE07000000000000000000000000320003070707000089
:20474000004343430064CE07CE07CE07000000000000000000000000320003070707000063
:20476000004343430064CE07CE07CE07000000000000000000000000320003070707000043
:20478000004343430064CE07CE07CE0700000000000000000000000010000301010005084B
:2047A00001001D17000001007E002900020000002030000001010010000002011020000085
:2047C0000B03203000001B022030000000000000000000000000000000000000000000000E
:2047E0000000000000000000000000000000000000000000000000000000000000000000B9
:20480000000000000000000000000000000000000000000000000000000000000000000098
:20482000000000000000120001000200E80364000F0A00010A001E005E020E0005006400FB
:204840005A00000000003A4334009C00363F3C00920037460000760032324B0000002800A4
:20486000000000000055F401900101374B00500000000000320090015E01F40100000A6405
:20488000C8009001B40000050F00010F0114004B3200005A140B00005A00B4000014002892
:2048A0000100C8003037002514640000000000000000000000003232329600001E0C0F5A6C
:2048C000050000018264417D64196401785A05640146460564004B00000000002D5028002B
:2048E00078002F542E007D002D500000780032324B0000002800000000000055F40190016B
:2049000001374B00500000000000320090015E01F40100000A64C8009001960000050F003C
:20492000010F0114004B3200005A140B00004B009600001400280100C8001E220025146499
:2049400000000000000000000000000032323296000019070F5A0500000264646464646443
:204960006401646405640141460564004B00000000002D50280078002F542E007D002D509D
:204980000000780032324B0000002800000000000055F401900101374B005000000000001A
:2049A000320090015E01F40100000A64C8009001960000050F00010F0114004B3200005A73
:2049C000140B00004B009600001400280100C8001E220025146400000000000000000000F5
:2049E000000032323296000019070F5A050000026464646464646401646405640141460580
:204A000064004B00000000002D50280078002F542E007D002D500000780032324B000000F8
:204A20002800000000000055F401900101374B00500000000000320090015E01F401000089
:204A40000A64C8009001960000050F00010F0114004B3200005A140B00004B0096000014D5
:204A600000280100C8001E220025146400000000000000000000000032323296000019071C
:204A80000F5A05000002646464646464640164640564014146050F001E00010001050100F6
:204AA000000000000052000D000100010000001405040500000000000000000005040E005C
:204AC000000000000800000105040500000000000000000505040500000000000000001E8E
:204AE00005040500000000000000001F05040500000000640052002201220200000608E987
:204B000016D516C116AD169916851671165D16651678168B169E16B116C416D716EA164981
:204B200016351621160D16FD161117251739176C1680169416A816BC16D016E416F8161A99
:204B4000163F1664168916AE16D316F8161D17D514FD1425154D1575159D15C515ED150034
:204B60000000000000000000000000000000000000000000000000000000000000000042F3
:204B80004F5343414D5F4100424F5343414D5F4200424F5343414D5F45004641545348419C
:204BA000524B005241434542414E44004C4F5752414345200042414E4437202020004241CC
:204BC0004E44382020200041424546524C37383100320033003400350036003700380001EB
:204BE0000101010101000005000E000100020014001A000000000000003235200030202075
:204C0000005243450031303000343030004C5635004C5636004C563700450016020000218F
:204C200002002801001001002A01002701001801001A0100000000000000000000000000B1
:204C400000000000000000000000000000000000000000000000000000000000000016003E
:204C60001F020000FFFFFFFFFFFFFFFFFFFFFFFFFFFFFFFF3E0018000400000103020405BA
:204C8000060709000000000001006400DC051A04D0070019750343080E00000100000000D8
:204CA0001E1E1E7D010100000000000000000000000016001B02000006000000E8030000F7
:204CC00000000000000000000A0028020000000000000A0027020000000000000A0013024E
:204CE0000000000001002C003700030028001E001400F4010F0F0F144C044006FB04080818
:204D00001E141E00020000040000F40164000A00960012001B000200002100020301F401F9
:204D2000320001640C0016000200C4090000B40208001000010000050B00190000000000F3
:204D400028010007002D020000004600290200000000000000000000000000000000000083
:204D6000000000000000000000000000000000000000000000000000000000000000000033
:204D8000000000000000000000000000000000000A0001010000000000000A0000010000FC
:204DA000200300000900020100006E0A010E002002050003643200F40196000E002A0201B7
:204DC0000064005802F40101001A0023020300000000000000000000000000FF00000000DE
:204DE0000000000A0005020000000000000A002C0200000100010010000002010000000055
:204E000000000000000000070009020000000000F5B90000FFFFFFFFFFFFFFFFFFFFFFFFDE
:204E2000FFFFFFFFFFFFFFFFFFFFFFFFFFFFFFFFFFFFFFFFFFFFFFFFFFFFFFFFFFFFFFFF92
:204E4000FFFFFFFFFFFFFFFFFFFFFFFFFFFFFFFFFFFFFFFFFFFFFFFFFFFFFFFFFFFFFFFF72
:204E6000FFFFFFFFFFFFFFFFFFFFFFFFFFFFFFFFFFFFFFFFFFFFFFFFFFFFFFFFFFFFFFFF52
:204E8000FFFFFFFFFFFFFFFFFFFFFFFFFFFFFFFFFFFFFFFFFFFFFFFFFFFFFFFFFFFFFFFF32
:020000040800F2
:020000040800F2
:2080000082B01E4B002201920193019B1C4A04330193019B1968936803F00C03042B06D090
:20802000082B08D0174B184A1A6002B07047154B196002B070475368506813F4800F00F053
:208040003F00536812D1C3F388130F49B1FBF0F101FB03F30A4A0B495268C2F3014201328E
:208060005200B3FBF2F30B6002B07047C3F38813B1FBF0F101FB03F3ECE700BF502800402D
:2080800000380240681900200024F400074BD0F8E4105B68D0F8F0205B1A9A42B8BFC0F884
:2080A000F030012380F81C3100207047001000E0B84B00EB800103EBC10170B54A68526840
:2080C000B2F814E01EF0010F4FEA800C6ED15FFA8EF4A60742D5BFF35F8F91F82040012C8B
:2080E000E5B200F0D180118BBFF35F8F0CEB000103EBC10191F82040022C00F0E7800CEB5F
:20810000000103EBC10191F82040032C07D191F8221021B193F87D10002940F0E780918840
:2081200089B241F48061918093F97C100CEB000E03EBCE0E9EF820E00EF1010E8E450CD1A2
:20814000002183F87D1093F87E10002940F0B780604403EBC00300225A7770BD65075DD43B
:2081600014F0400400F0CB80148A93F97C508E6AE4B274555FFA85FE0EF1010464B291F8B0
:20818000206083F87C40E51CAE42214600F025810CEB000503EBC50595F82050AC42C5D105
:2081A0000EF1020149B283F87C10BFE7B2F800E02EF4006E4FEA0E4E4FEA1E4EA2F800E047
:2081C0001488A4B244F48064148091F82240002583F87C50002C48D093F87D40002C41D0DD
:2081E000012183F87D100CEB000103EBC10191F82010022904D1118889B241F400611180F9
:208200000CEB000103EBC101897F41F001011182604403EBC00393F8203070BD91F82240A0
:20822000012583F87E50002C70D093F87D40002C71D10CEB000103EBC10191F82110002922
:2082400000F0AA80118889B241F40071118093F87C1001314CB283F87C401188CE05FCD43F
:20826000214663E7C97FFF29BAD00CEB000103EBC1018C7F04F0FE041482CA7FFF2AC7D00B
:20828000FF2283F87C20C3E791F8221000293FF42AAF93F87D1000293FF425AF118821F416
:2082A00080610904090C1180BFF35F8F118B118883F87E5089B241F4007111802FE791886B
:2082C00021F440710904090C918041E791F8221000293FF414AF93F87D1000293FF40FAF71
:2082E000118821F480610904090C1180918821F480610904090C918093F97C1016E71FFACC
:208300008EF52D062DD493F97C100FE793F87D1000298ED096E791F82040022C148846D9AA
:2083200024F480642404240C1480158A8E6A93F97C40EDB235558E6A118889B241F40071DB
:208340001180E4B2158A611C49B2EDB275549188023489B264B241F4806183F87C40918079
:208360007BE793F97C506E1C3ED04C6A665D16826C1C91F8205064B2A54283F87C4021467E
:208380007FF4D4AE948824F480642404240C9480CCE600BF68190020118893F97C4089B236
:2083A00041F480711180012183F87D1055E7A4B244F400741480158A8E6A93F97C40EDB28C
:2083C0003555E4B28E6A158A611C49B20334EDB264B2755483F87C403FE7958825F4806541
:2083E0002D042D0C9580D3E683F87C40CC7F148291F8224024B991F8201000297FF408AF59
:20840000918821F480610904090C918000E700BF30B5EAB18E464FEA014C034600F1C0059B
:20842000002419689A6841EA0C0142EA0E029A60C3E900140C33AB42F3D1D0F8C030C0F807
:20844000C44043EA0E03C0F8C030C0F8C84030BD4FEA014E8C46E0E7836930B41C6999680E
:208460002268096822F0010222608A899C8992B222EA04028A81027D00681F2A06D9446816
:20848000203A08219140214217D0FEE70468082191402142F9D1202101FA02F28260234A47
:2084A00092F87F203AB11A7E012A0BD1D3F8F8200132C3F8F82030BC7047202101FA02F24D
:2084C000C260ECE7D3F8F4200132C3F8F420EFF31181502282F3128858685C6C026822EAD3
:2084E00004029C6C2243C9B2026081F31188D3E90C401A6999681D6C096814605061D3E9B8
:208500000E40546090600024B3F8A800D5604C62C86210680124204310601C768A899B89AC
:2085200013439BB230BC8B81704700BF68190020704700BF024B03EB401090F89D007047AC
:20854000681900204368B0F8502010B41A83EFF31182502383F312884168446C0B6823EA85
:208560000403C46C2343D2B20B6082F31188D0E907418268036912681C605961D0E9094157
:208580005C60C46A9960B0F86010DC600023D1625DF8044B03767047037D1F2B30B54FF08C
:2085A0002002046816D9A3F120056168AA400A420FD00C4A002182F8801141680A681F2BC0
:2085C00022F001020A604FF0200206D9203B9A40E26030BD21689A40E9E702FA03F3A36050
:2085E000F7E700BF68190020F0B4037D85691F2B63D90168A3F120024E6820249440264250
:2086000049D010239340CC60CB604B68D340DE0767D4EFF31183502282F312882A6C1168F8
:20862000C9072FD4516889B271B9D5E90964A64225D0AF692744D76058D9341BA4B25460FD
:20864000AE62002185F86410116841F00101DBB2116083F31188037D1F2B19D802681946BB
:20866000106808238B40184200D093601068042303FA01F1014200D09160F0BC7047012257
:2086800085F86420DBB283F31188037D1F2BE5D90168A3F120024C6808209040044200D0D4
:2086A000C8604C68042000FA02F22242E5D0203B00FA03F3F0BCCB607047026820241668AE
:2086C0009C4026421946CBD010219940946091601168D940CC079CD5012101FA03F3936091
:2086E00097E7012303FA02F2CA6092E72E69341BA4B25460A962A4E7074BD0F8E4105B68ED
:20870000D0F8F0205B1A9342C8BFC0F8F030012380F81C3100207047001000E04FF4006382
:20872000838170474FF40063838170474FF400638381704738B580226B21054611F0C6FE91
:20874000642014F025FEF521284611F00FFFAC2818D005D8122817D0982817D000240FE067
:20876000AF28FBD1092410226A21284611F0AEFE28460322682111F0A9FE642014F008FEFF
:20878000204638BD0724EEE70824ECE70B24EAE738B580226B21044611F098FE642014F0FB
:2087A000F7FDF521204611F0E1FE0546012014F043FC682D1BD18C21204611F0D7FE182810
:2087C0000DD8142834BF0025032520460722682111F07CFE642014F0DBFD284638BDA0F151
:2087E0005403DBB2072B34BF03250025EDE70025F3E700BF144A154992F8A831C3EB83231E
:20880000A1FB03135B09D2F89C1103F57773838392F9A6C1B1F90220944511DB6FF03101CF
:208820008C45D4BFC2EB0C03C2EB0103C3EB83238A1A93FBF2F303F577739BB2C3837047D0
:208840004FF47773C3837047681900201F85EB512DE9F0410026871E00F10608B6463546E5
:20886000092D1ED833462A4601EB030C02F108049CF801C00CFA02FCE2B20133092ADBB208
:208880004EEA0C0EF0D9C5F10903C3F3C4020835013603F0F80352FA86F653FA85F3F6B2E8
:2088A000DDB2CEF3090303F5777327F8023F0A3D47454FEA9E2EEDB2D2D18B79DB0914BF45
:2088C0004FF4FA634FF47A730381BDE8F08100BF234BD3F8981193F89421497BD1B310B441
:2088E00093F8A94194BB93F8CD01A8BBD2B20132B2FBF1F401FB14224ABB93F8AE21022AF2
:2089000025D093F80422B3F80612D3F808430132B2FBF1F001FB1022D2B283F8042293F839
:208920000412D3F80C23D3F88C0152681944121A91F8081204FB01F1012002EB11225DF862
:20894000044B83F8A901C3F89021704700205DF8044B70470846704720465DF8044B70473F
:20896000681900200E4A92F8CD0192F89431A0B910B492F8AE110B4C022922780AD0012AD0
:2089800008D0DBB20133B3FBF2F002FB1033B3FA83F040095DF8044B70470020704700BF14
:2089A0006819002098010020094B93F8102393F8113352085BB25242002B02700B700278EF
:2089C000BABF0333C3F38703002313440370704768190020704700BF002858D070B5A9B11E
:2089E0002B4E96F81C3304468BB9FFF731FF96F820238B79062A03F07F0333D903F03F03B2
:208A000086F821332046BDE87040F3E670BDFFF71FFF8B79C3F3C202052A03F07F0311D8A4
:208A200003F00703052B9CBF1A4931F8133002F1050288BF40F2DC5324F812302046BDE8D4
:208A40007040D7E64FF47A71134A03F00F0301FB03F3A2FB0323DB080B44C3822046BDE8E2
:208A60007040C7E60D49097807294FF47A7094BF03F03F039BB202F1050294BF3F217F2143
:208A800000FB03F3D2B2B3FBF1F30344D4E770476819002064EA0408898888889801002041
:208AA0002E4B93F8222393F822C3BCF1010FD2B25FFA8CF10DD00239022907D893F8231303
:208AC00081423CD093F82213022906D083F82223704793F82313814211D0B3F82413B3F89D
:208AE00026C3013189B28C45A3F82413EED280F00100032283F8230383F82223704793F884
:208B0000281393F829C3614493F82AC3C9B28C4583F8281393F82B1303D8012914BF0022C1
:208B20000222013180F001004FF0000C83F82B1383F82303A3F824C383F82223704793F845
:208B40002223A2F10402B2FA82F281F00101520983F8231383F82223704700BF68190020C1
:208B600038B5EFF31184102383F31288084DD5F82C3323B1E4B284F31188002038BD13F03B
:208B8000B7FEE4B2C5F82C0384F31188012038BD68190020084B10B5D3F8303318440C46E3
:208BA000007E12F063FF18B1036882880CB11A8310BD5A83FCE700BF681900200B4B10B533
:208BC000D3F8303303440446187E12F04FFF58B12E228271621CC271012112F017F9204659
:208BE0000021BDE81040D5E710BD00BF6819002000234FF6FF720121017243818381C381FC
:208C000002828274704700BF154BFF22F0B54FF0000C4FF0FF3EC2700271027242724273F5
:208C2000827303F10C07764665466446624602EB820281189F4284544D7081F802C0CE7086
:208C400081F804E00BD093F90620DC791D7A93F809C093F90A6093F90BE00633E7E7F0BDC9
:208C600070EA040800230222037043708370C3700271704700230122027043708370C37040
:208C8000704700BF4FF4F07202804FF4FA6240F22E4C0921028440F226220023A0F81EC029
:208CA00081704FF47A7C0E2182830222A0F822C0437140F2012C8360C36080F8241042743D
:208CC00040F2034140F2056243820723A0F814C0C182028383767047164BD0F8E0105A68D7
:208CE00010B50446D0F8D80071B1131A99420BDC94F8D030C4F8D820012B10D0D4F8D43098
:208D00000133C4F8D43010BDD4F8E430C4F8D8200344C4F8DC3094F8D030012BEED104F183
:208D2000E801201D11F084FBD4F8D4300133C4F8D43010BD001000E010B504460E49D0F8DE
:208D4000D83094F8D020D0F8E40049680344012AC4E9361305D0D4F8D4300133C4F8D43031
:208D600010BD04F1E801201D11F062FBD4F8D4300133C4F8D43010BD001000E070B5866918
:208D800096F8DC30012B8AB0054623D0023B012B2BD8D6F89C30164C8C221A700FCCEC46E8
:208DA000ACE80F00D6F89C300093D6F8A03001930FCCACE80F0094E80300AB698CE8030029
:208DC00003F11000694611F033FBAB691A69136A002BFCD1D6F8A030B3F90220EA81B3F922
:208DE00004202A82B3F906306B8201200AB070BD84EA040810B50C4CD4F8340311F0D8FF5A
:208E000094F83833012B02D094F838332BB9BDE810400649064811F00BBB04F54F70054923
:208E2000BDE8104011F004BB681900209C010020A41C0020C401002070B50C4CB4F8905150
:208E4000D4F83403D4F8906111F0B2FF084B6DBA360C83F85560A3F8565004F54F7003F1C7
:208E60005801BDE8704011F0E3BA00BF681900209801002070B50446EFF31185F02383F31D
:208E800012881249D1F83433A3B11A6810699A8810420FD00E48C1F8D4434FF000430168FA
:208EA000B2FA82F223FA02F20A430260EDB285F3118870BD184611F07BFFEDB285F311886C
:208EC00004482346BDE87040184700BF68190020003C01403C1D002038B5EFF3118410233C
:208EE00083F31288FFF73CFE38B90D4B012283F8D823E4B284F3118838BD094D0022D5F870
:208F0000340305F57571012342F06AF90023054885F8D833E4B2FFF7ADFF84F3118838BD4C
:208F2000681900203990000838B5EFF31184102383F31288FFF7CCFC18B9E4B284F31188E3
:208F400038BDFFF70DFE38B90D4B012283F8D923E4B284F3118838BD094D0022D5F8340321
:208F600005F57571012342F03BF90023054885F8D933E4B2FFF77EFF84F3118838BD00BFC1
:208F800068190020398E000808B503681A6A51681A6A8B785268D27842EA0323D20708D569
:208FA0000E4B0F48022283F83823FFF763FF002008BD13F0020308D0084B0948012283F8A8
:208FC0003823FFF757FF002008BD044A044882F83833FFF74FFF002008BD00BF68190020FD
:208FE0007590000808B50248FFF744FF002008BDF58D000802680648126A08B55268054BBA
:20900000D27883F8DA23FFF735FF002008BD00BFBD9000086819002008B50248FFF72AFFA4
:20902000002008BD0D91000808B50248FFF722FF002008BDCD9100080A4BD3F8343363B1A1
:209040009A884FF00043B2FA82F2D34005D0064A116821EA0301116053610449044811F0CD
:20906000E7B900BF68190020003C014018020020A41C00200D4BD3F8343363B19A884FF05A
:209080000043B2FA82F2D34005D0094A116821EA030111605361074B0748FF2203F1AC0122
:2090A00083F8A92083F8AA2011F0C2B968190020003C014098010020A41C00200F49D1F8D3
:2090C000343363B19A884FF00043B2FA82F2D34005D00B4A106820EA030010605361094B17
:2090E000094A91F8DAC383F8D5C003F1D801A2F1A000C3F8F02011F09BB900BF6819002067
:20910000003C014098010020441D00200A4BD3F8343363B19A884FF00043B2FA82F2D34026
:2091200005D0064A116821EA0301116053610449044811F07DB900BF68190020003C0140B0
:20914000AC020020A41C00200A4BD3F8343363B19A884FF00043B2FA82F2D34005D0064ACA
:20916000116821EA0301116053610449044811F05FB900BF68190020003C0140D4020020BD
:20918000A41C00200D4BD3F8343363B19A884FF00043B2FA82F2D34005D0094A116821EACE
:2091A000030111605361074B074AC3F8782103F5B271A2F1A80011F03BB900BF68190020E4
:2091C000003C0140980100204C1D00200A4BD3F8343363B19A884FF00043B2FA82F2D3405E
:2091E00005D0064A116821EA0301116053610449044811F01DB900BF68190020003C014050
:2092000038030020A41C0020F0B5044690F8210183B008B903B0F0BD12F028FC054600288D
:2092200057D083882C4AB3FA83F32621202BC180E260C3F11F02EDD0284E294B134406EB8A
:2092400082020C34C2F8EC4393F8487011F0B0FD0021284611F0DAFDA9882868B1FA81F12B
:2092600000F13F40C1F11F0100F57E00C9B2C0F387203EF0C1F9AA884FF00043B2FA82F2A8
:20928000D3403E444FF400620093684601238DF80630ADF8042041F049FF96F82C34F02B29
:2092A0000DD8AB884FF00042B3FA83F332FA03F3B0D00C490A6813430B6003B0F0BD0A4A14
:2092C000F023D05D86F82C340022032141F062FFE7E7014BE3609DE7D98C000868190020A9
:2092E00064EA0408003C01405C54050838B5044600F11005224811F021F844F23B33A4F8D9
:209300004C31A0822046FFF77FFF01226B21284611F0DCF8782013F08FFE18221B212846D6
:2093200011F0D4F818221C21284611F0CFF894F8DB30052B21D894F81E31032B1DD194F870
:20934000233103F0FB03022B0CBF0022072228461A2111F0BBF894F820212846192111F0B2
:20936000B5F828461022372111F0B0F828460122BDE83840382111F0A9B80022E7E700BF87
:2093800000127A00F0B5836993F8DC20012A8BB0054627D0023A012A2FD893F84C21D3F850
:2093A0009C10174C62F07F030B708669D6F8A0305F1C0FCCEC46ACE80F00D6F89C30CDE947
:2093C00000370FCCACE80F0094E803008CE80300694606F1100011F02BF8AB6919690A6AFE
:2093E000002AFCD1D3F8A0305A8852BAEA819A8852BA2A82DB885BBA6B8201200BB0F0BDBA
:20940000BCEA0408F0B590F8DC30D0F8A060012B8BB004464BD015D8D0F89C304FF0FF32DC
:209420001A605A609A60DA60D0F8E0300522B3F57A7FC0F8F02054D8032380F8DC30012065
:209440000BB0F0BD023B012BF9D890F84D31D0F89C203A4D63F07F031370D0F8A0305F1CEE
:209460000FCDEC46ACE80F00D4F89C30CDE900370FCDACE80F0095E803008CE80300694691
:2094800004F1100010F0D4FF2269136A002BFCD173885BBAA4F8D030B3885BBAA4F8D2305A
:2094A000F38801205BBAA4F8D4300BB0F0BD90F84C2190F84D319B1A5B100133DBB206EB26
:2094C000430236F813305BBAA0F8D03053885BBAA0F8D23093885BBAA0F8D43001200BB0F7
:2094E000F0BD03691A7B2AB35B691BB390F8983003B390F84C31D0F89C20C4F8A40063F00D
:209500007F03137090F84C1190F84D31D0F8A0200B48C4F804015B1A07330121C4F8FC3006
:20952000D4F89C3084F800110A44C4E93D3284F8DC1084E7022384F8DC3080E7BCEA040803
:209540008D800008F0B590F81E31032B8DB0054658D090F8DC30D0F8A060012B00F08E8016
:2095600015D8D0F89C3000221A605A609A609A81D0F8E0300522B3F57A7FC0F8F02036D889
:209580000323012480F8DC3020460DB0F0BD023B012B33D8D0F89C30554F92221A700FCF64
:2095A00002AC0FC40FCF0FC497E80300D5F89C3084E80300029302A9D5F8A030039305F186
:2095C000100010F035FF2A69136A002BFCD1B6F90230A5F8D030B6F90430A5F8D230B6F990
:2095E0000630A5F8D430012420460DB0F0BD03691A7B002A5AD1022385F8DC300124204610
:209600000DB0F0BD3B4902913B4903910A21002301221030049102A98DF814208DF828203A
:209620000190CDE90633CDE908330B9310F000FF2A690198136A002BFCD13049B1F83624FF
:20964000052A19DDB1F93844D1F83864B1F93A74B1F93C1414F5004F20D0C5F8D060A5F836
:20966000D4100124063A002AC9D0B0227E2110F02DFF20460DB0F0BD1C46F4E7B6F908205D
:20968000A0F8D020B6F90A20A0F8D220B6F90C20A0F8D4201C4620460DB0F0BD17F5004FEB
:2096A000DBD111F5004FD8D11C46DBE75B69002BA1D090F89840002C9DD0D0F89C30C5F832
:2096C000A4008C221A70D0F8A020C0F8F8200E2201230B49C0F8FC20D0F89C20C0F8041189
:2096E000C0F8F42080F8003180F8DC3087E700BF84EA0408600300209C1D002068190020CD
:20970000F9860008114B002130B50160818003F10C054FF448748E460A4602EB420200EBBA
:20972000420C00F812E08CF80110DA788CF80220AB42ACF8044007D093F9062093F807E094
:20974000197A5C890633E8E730BD00BFE4EA04082DE9F047314B03610D460446232013F0F3
:2097600017FE6B7883B1042B12D022691370236902221A70EB783BB104F11008A978404661
:2097800010F012FE074638B900273846BDE8F087236901221A70EAE7E87812F067F9A061ED
:2097A0002B780133DBB210B1C37122238371092111F02CFBA069DFF8709010F0EFFDD9F828
:2097C0006834632BFBD91648DFF860A0154E10F0B5FDA08202E05AF8046B8EB14046B047C0
:2097E0000028F8D0236984F8D8001B78012B0ED0022BCAD199F86C34013389F86C34C4E703
:20980000E87812F033F912F091F93746BDE799F86D34013389F86D34B7E700BFA81D002043
:2098200040420F009187000868190020FCEA0408431C00F03D812DE9F04FDFF8B4A300EB69
:2098400080030AEBC30287B0D2F80480810005460191DB00B8F1000F05D0D468002C00F028
:20986000FD80A17911B107B0BDE8F08FD2F81090B9F1000F00F04E8199F80620002AF2D12E
:2098800018330AF10406F018D8F80470F250691CC0E901221523C260C9B2A3711623E17125
:2098A00089F8063089F8071098F8180041F0F8F8BB88A28823F440731B041B0CBB8023684D
:2098C0001A83D9F80030B9F804201A831121204611F09CFA1121484611F098FA09264FF088
:2098E000330B05E0BBF1010B00F0DD8013F0A4FB0A20002CF6D02268A18813691942F1D037
:209900005183052013F098FB2368A2881A83052013F092FB013EE2D1002C00F0198123687E
:20992000A2885A83052013F087FBB9F1000F00F03781D9F80030B9F804205A83052013F03A
:209940007BFB2368A2881A83052013F075FBD9F80030B9F804201A83019B20465C190AEBC8
:20996000C404A37D227D002B14BF3221122110F0D7FAA37D627D002B14BF322112214846FA
:2099800010F0CEFA944B9F4200F0F480934B9F4200F0FB80924B9F4200F00C81019B2B446B
:2099A0000AEBC30A4FF47A73BAF8184003FB04F4BB8823F440731B041B0CBB803B889BB217
:2099C00043F001033B80BD8802A83DF09BFC25F03F050498834B2D04A3FB00232D0C45EAC5
:2099E0009345BD803A8822F001021204120C3A807D4A990C94420B465BDC6200B0FBF2F2D2
:209A000092B20133042A38BF04223B84BA833B889BB243F001033B803B8823F4816323F0B4
:209A200002031B041B0C4FF4804143F480633B8039813B8823F080031B041B0C00223B80CC
:209A400098F81A00114641F0A5FB002298F81900114607B0BDE8F04F41F09CBBD2F8109085
:209A6000B9F1000F3FD099F80620002A7FF4FBAE18330AF10401CA18D8F80470CC50C2E9E9
:209A800001441623D46089F806306B1C89F8073098F8180041F004F8BB8823F440731B041D
:209AA0001B0CBB800DE7DCB9052013F0C5FA2EE7704704EB4404B0FBF4F082B2C0F30B0050
:209AC00008B942F001024FF4967301FB03F34749A1FB03139B09013342F400423B8495E785
:209AE0002268A1880CE718330AF10401CA18D8F8047041F80390C2E90199C2F80C9098F858
:209B0000180040F0CDFFBB8823F440731B041B0CBB80DBE618330AF10401CA18D8F8047071
:209B200041F80390C2E901991523C2F80C90A3716B1CE37198F8180040F0B2FFBB88A288A1
:209B400023F440731B041B0CBB8023681A83BDE6052013F071FAB9F1000F36D0D9F800309C
:209B6000B9F804205A83052013F066FA052013F063FAECE603F5F2331A6A42F400121A62EF
:209B80001A6A22F400121A6208E703F5F0331A6A42F480021A621A6A22F480021A62FDE660
:209BA000052013F049FA2368A2881A83052013F043FAD1E603F5EE331A6A42F400021A627B
:209BC0001A6A22F400021A62E8E6052013F034FA052013F031FABFE6005400400058004025
:209BE000005C004083DE1B43A0860100D34D62106819002070B5284D00EB800305EBC303F2
:209C000084B05A685468A28A92B20392039A12F4706F1CBF01221A77039B13F4E06F4FEA4F
:209C200080060CD1A38A304423F4706305EBC0051B041B0C0022A3826A7704B070BD238B84
:209C4000A38823F480631B041B0CA380039B9A05E8D423889B05E5D42388D9050FD5238861
:209C6000DA05FCD423889BB243F40073238023889B05FCD40190FFF7DBFD0198D2E7238879
:209C80009BB243F400732380A38823F440731B041B0CA380C6E700BF68190020F8B5774C4F
:209CA00004EB0016D6F87034002B00F094800546070196F8780440F0F3FE96F878345909E4
:209CC00003F01F0203294FF0010303FA02F300F09880042900F0858002297DD0E31901353B
:209CE00093F8740411F0C2FEEDB2064610B112238371C571E31993F8750411F0B7FE10B11E
:209D00001323C5718371E31993F8760411F0AEFE10B11423C57183713C444A2194F8772401
:209D2000304610F0FDF894F8750411F09FFE94F877242A2110F0F4F894F8760411F096FE1C
:209D400094F877240A2110F0EBF8D4F870244C4B9A425BD04B4B9A4248D04B4B9A4260D0A4
:209D60004A4B9A4268D04A4B9A4270D0494B9A4278D049499088B1F8D641B1F8D431B1F810
:209D8000DE512343B1F8D8412343B1F8DA4120F003002343B1F8DC410004000C2343B1F8E4
:209DA000E04190802B4310882343B1F8E241B1F8E41100F44150234303439BB21380938B6D
:209DC00023F400631B041B0C9383118213889BB243F040031380F8BD304A516A0B4353623C
:209DE0007CE72E4A11690B43136177E703F50033196A41F480411962196A21F480411962FB
:209E0000B7E7264A116A0B43136267E703F58433596A41F480515962596A21F48051596211
:209E2000A7E703F5FE33196A41F400411962196A21F4004119629CE703F58233596A41F47B
:209E400000515962596A21F40051596291E703F56843596A41F480115962596A21F480114A
:209E6000596286E703F56443596A41F400115962596A21F4001159627BE700BF68190020F1
:209E80000030014000380040003C004000340140005001400054014098010020003802408F
:209EA00030B5012085B03DF097FB7B4A936823F003039360936813F00C0FFBD113687649BD
:209EC000002855D143F00103136041F288330A68950770D4013BFAD1704C714D6E4B714A55
:209EE000EA60714A596FAA60596B704821F080015963596F41F080715967196B41F4CE018F
:209F000019635A6B5A631A6C02431A64596C684A0A435A6468463DF0F5F9009B6549664AB6
:209F2000A1FB03139B0CC4F8B834D5F8FC3043F08073C5F8FC300021604BC2F8B03F5160F2
:209F4000136843F00103136023685D4AA2FB03239B09013BB3F1807F08D24FF0E022F02039
:209F60005361072385F823009161136105B030BD43F4803313600A68940341F2883304D42F
:209F8000013BA9D00A689403FAD5444C4D4A4E4BB0FBF3F3B0FBF2F0B3EB400F18BF184634
:209FA0004FF48002B3FBF0F3C4F8B424C4F8A004C4F8A43409E0394C002108220223C4F829
:209FC000B414C4F8A024C4F8A43402203DF004FB02280FD83D4BD4F8A41403EBC00085887F
:209FE000C2884388C4F8AC54B3FBF1F3C4F8B024C4F8A834284B36491A6C42F080521A64DC
:020000040800F2
:20A000000A6842F440420A609A689A609A689A609A6842F480529A60D4F8A014D4F8B4248C
:20A02000D4F8A8040A4342EA8012D4F8B00442EA0062D4F8AC044008013842EA00425A606A
:20A040001A6842F080721A601A689201FCD5214A40F202701060986820F003009860986870
:20A0600040F00200A2F580629860936803F00C03082BFAD1D4F8A4541748D823B3FBF5F38E
:20A0800041EA831141F000510123C2F884108366FDF7B6FF21E700BF003802406819002099
:20A0A00000ED00E00005FA0500000020FFC9FE36335F070083DE1B43001000E055CEACC5D7
:20A0C000D34D621080841E0040420F0008EB040800700040003C0240000047422DE9F04F30
:20A0E000B44C94F87FA083B0BAF1000F1ED1D4F81439002B16DD0026AF4831460769D0F8D6
:20A10000A0303D6825F0010503F1C0023D6059600C339A42FBD1D4F814390136B34200F582
:20A120008070EBDC012003B0BDE8F08FD4F86834984612F0DDFBD4F8BC34D4F8C02414339D
:20A14000801AB0EB430FC0F22A8104F2C447DFF874B2CDF804A004F18006C2460025B8460E
:20A16000D4F81039AB4240F3C180B16973680A6998005368D1F8EC201FFA83FCA2EB0C0C9C
:20A18000D1F8E83000F108500CF1806700EB4310393F00EB87170246974240F29F80116887
:20A1A00002F58073002900F0EB80116C002900F0EA80D2F88010002900F0E880D2F8C010BC
:20A1C0001A460029E8D19F4240F28880191AACEBA111452928BF4521002703EB81119E4660
:20A1E00038464FF001090DE01A6C002A40F08280D3F88020002A40F0A780D3F8C02003F53A
:20A2000080732AB9994205D91A68002AECD04033994272D8112F61D9C7F11503002B5DDB02
:20A2200008D000FA03F3C7F11407012000FA07F747EA0300C0F3C4330BEB8303D3F8BC1079
:20A2400000F01F030BEB8303D3F8BC2042EA0132C0F344110BEB8101C0F384230BEB830314
:20A26000D1F8BC10D3F8BC3042EA011242EA032383EA132282EA121202F00F020F2A1BD1A7
:20A28000B3F5803F18D2D4F8CC241B090132B3F5606FC4F8CC2440F08B8094F82C2602EB31
:20A2A000420204EBC2022A4492F8D9250D2A7AD00199A8F80C300AE0D4F8CC340133C4F814
:20A2C000CC34D4F8C8340133C4F8C83400213B4B5C2000FB053052460FF0E8FD0135082D90
:20A2E00008F1140806F120067FF43AAF012384F8CA35FCE6803399428CD9A3EB0E0292111B
:20A3000002F1010C2E4A82FB0CE2A2EBEC72012AB8BF012290401744013A09FA02F21043FA
:20A320009C46DCF800208AB1DCF840208AB3DCF880208AB3DCF8C0200CF5807C42B16145A0
:20A34000EFD89E4663465DE7C03361E70CF1400C6145F6D9ACEB03039B115A1C184B83FBCC
:20A3600002E3A3EBE273012BB8BF012398401F44013B09FA03F3184363469E46634641E725
:20A3800002F140031FE702F180031CE702F1C00319E70CF1800CDBE70CF1C00CD8E700205F
:20A3A00003B0BDE8F08F8023019988F81E308EE79BB27DE76819002080220020981F00205B
:20A3C0005655555564EA04082DE9F0412F4F07EB401898F89C300BB9BDE8F0818C2303FBDC
:20A3E00000730E4693F81A2D88F88220002183F81A1D044645010FF049FFC0BB3D44244890
:20A40000A5F8806000EB44100FF0F4FB97F87F30D5F89820A3B1D5F88410D2F8A03001245B
:20A420008C4003F1C001420010F4004F90B202D15A6822435A600C339942F4D1BDE8F0811B
:20A44000D5F88440D2F8A03004F110020124944003F1C001420010F4004F90B202D15A68B0
:20A4600022435A600C339942F4D1BDE8F08197F82C3603EB430307EBC303234493F8D965BB
:20A48000002EBBD0012388F88230B7E768190020E819002010B5044643F0B6FD81B22046BF
:20A4A000BDE8104090E700BF2DE9F843204F214E97F8802096F82C369A4233D1D6F8145908
:20A4C000002D14DD002496F87F801B48A1460134B8F1000F02D0037E012B1ED00269136823
:20A4E000AC4243F0010300F580701360EFD112F0FFF9D7F88440C6F8C004002C0BDD0F4AA3
:20A5000002EBC404116893888889083203439BB2A2428B81F6D1BDE8F88380F8F090FEF750
:20A5200011F8DBE740F024FA0028C7D1BDE8F883602A00206819002080220020E82A0020E3
:20A5400010B57D4B7D4C93F82C3694F880209A4240F0988194F8A820002A00F0EC8094F801
:20A56000A930002B40F0EC80D4F8AC10088820F080000004000C0880B4F8B000C8620888E5
:20A5800080B240F0800008804B62B1F80CC0B4F8C00040EA0C0080B2012A8881A4F8C0309B
:20A5A00000F0C980D4F8C410088820F080000004000C0880B4F8C800C862088880B240F07A
:20A5C000800008804B62B1F80CC0B4F8D80040EA0C0080B2022A8881A4F8D83000F0AB8071
:20A5E000D4F8DC10088820F080000004000C0880B4F8E000C862088880B240F0800008803B
:20A600004B62B1F80CC0B4F8F00040EA0C0080B2032A8881A4F8F03000F08D80D4F8F41055
:20A62000088820F080000004000C0880B4F8F800C862088880B240F0800008804B62B1F844
:20A640000CC0B4F8080140EA0C0080B2042A8881A4F808316FD0D4F80C11088820F08000BD
:20A660000004000C0880B4F81001C862088880B240F0800008804B62B1F80CC0B4F8200172
:20A6800040EA0C0080B2052A8881A4F8203152D0D4F82411088820F080000004000C088052
:20A6A000B4F82801C862088880B240F0800008804B62B1F80CC0B4F8380140EA0C0080B232
:20A6C000062A8881A4F8383135D0D4F83C11088820F080000004000C0880B4F84001C8624F
:20A6E000088880B240F0800008804B62B1F80CC0B4F8500140EA0C0080B2072A8881A4F803
:20A70000503118D0D4F85421B4F85801118821F080010904090C1180D0621088B4F86811BD
:20A7200080B240F08000108053629089014389B29181A4F8683110BD68190020602A0020FB
:20A74000D4F8B430B4F8B81059601968D4F8AC0041F00101196040F20D33A0F848308189EB
:20A7600089B241F48071012A8181E4D0D4F8CC10B4F8D0004860086840F001000860D4F8F6
:20A78000C400A0F84830818989B241F48071022A8181D0D0D4F8E410B4F8E8004860086840
:20A7A00040F001000860D4F8DC00A0F84830818989B241F48071032A8181BCD0D4F8FC104A
:20A7C000B4F800014860086840F001000860D4F8F400A0F84830818989B241F48071042AB2
:20A7E0008181A8D0D4F81411B4F818014860086840F001000860D4F80C01A0F84830818985
:20A8000089B241F48071052A818194D0D4F82C11B4F830014860086840F001000860D4F8DF
:20A820002401A0F84830818989B241F48071062A818180D0D4F84411B4F8480148600868C8
:20A8400040F001000860D4F83C01A0F84830818989B241F48071072A81813FF46CAFD4F88E
:20A860005C11B4F860214A600868D4F8542140F001000860A2F8483093899BB243F48073A5
:20A88000938110BD40F074F800287FF463AE10BD70B5104ED6F81039002B19DD06F180048C
:20A8A000002505E0D6F81039AB4204F120040FDD237F0135002BF5D0E0680028F2D0217DED
:20A8C00010F044FCD6F81039AB4204F12004EFDC012070BD68190020F0B5D0F88050876835
:20A8E0002B6858493E6823F001032B6000232B608D426B60AB60EB602B614FF0210383B01C
:20A90000044600F160026B6100F097804E4B9D425ED0284601923CF071FD019A002384F84C
:20A92000543079790C290ED8DFE801F0650D0D0D5E0D0D0D570D0D0D0700B38B23F4006380
:20A940001B041B0CB383304613F04EFB7B790C2B10D8DFE803F0690F0F0F600F0F0F570F63
:20A960000F0F0700B38B23F400631B041B0C43F40063B38340222968A369E06A6262334A5A
:20A9800003430A40216B13430B43D4E90D120B431343D4E90F120B431343D4E913120B43C5
:20A9A000134343F040032B60D4E911316A690B4322F007021343A16A6B61D4E90723696028
:20A9C000AA60EB602B6843F010032B6003B0F0BD4FF4746143F8201CA0E7B38B23F00803EC
:20A9E0001B041B0CB383AEE7338B23F400631B041B0C3383A7E7338B23F008031B041B0C62
:20AA00003383A0E7B38B23F008031B041B0C43F00803B383AEE7338B23F400631B041B0CD0
:20AA200043F400633383A5E7338B23F008031B041B0C43F0080333839CE7054B3D219960FA
:20AA40006CE700BF10600240286002403F801CF0006002402DE9F04FDFF8B0B12DED028BC7
:20AA60009BF87F4085B034B90124204605B0BDEC028BBDE8F08FDBF86834624F08EE103A68
:20AA800011F036FF97F898310290002B00F0B3810BF2C4430BF618550BF5C66A00269946A0
:20AAA0000EE02846FFF718FF97F8983101369E4205F18C050AF15C0A09F1140980F2A88025
:20AAC000D7F8A031029AD31A03D4AA6D9342C0F27B818C2303FB06B393F86C3D03F0FF024E
:20AAE0000192002BDDD0AB68A9891A68D5F880305B681FFA83FE9389CEF1160E9BB223EAF1
:20AB00000103BEF1070F9381CBD9DBF8CC340133CBF8CC34D5F8883003939C4600225CF877
:20AB2000044B012190461BE0DCF80000B8F1140FA0EB04031DDC13F1080448BF03F1170482
:20AB4000231108EB24180446581E013102FA03F3012282408E4542EA03020CF1040C08D3DD
:20AB60008E45E1D8C8F11503DCF800404FF01508EAE7B8F1150F39D12348C2F38423C2F3E4
:20AB8000441100EB830300EB8101D3F83C31D1F83C111B0243EA011302F01F0100EB810157
:20ABA000C2F3C43200EB8202D1F83C11D2F83C210B4343EA023383EA132282EA121202F06A
:20ABC0000F020F2A12D1C3F30F134FF6FF7293420CD0B3F5606F00F0FE80A9F80C300199AD
:20ABE00018EE102A50460FF061F95AE7DBF8C8340133CBF8C834002E00F0DF8000230193EF
:20AC0000EDE700BF602A002064EA040868190020012200218BF8CA25C7F8A011002B3FF478
:20AC200023AF9BF8281D890700F1BD80DBF8201D086849798A40018C92B289B221EA020186
:20AC40000184018C89B20A43012B02843FF40CAF9BF8B42D12F0020FDBF8AC2D1068547942
:20AC6000018C0CBF01220422A24092B289B221EA02010184018C89B20A43022B02843FF444
:20AC8000F3AE9BF8402E12F0020FDBF8382E10685479018C0CBF01220422A24092B289B27F
:20ACA00021EA02010184018C89B20A43032B02843FF4DAAE9BF8CC2E12F0020FDBF8C42E18
:20ACC00010685479018C0CBF01220422A24092B289B221EA02010184018C89B20A43042B56
:20ACE00002843FF4C1AE9BF8582F12F0020FDBF8502F10685479018C0CBF01220422A240E5
:20AD000092B289B221EA02010184018C89B20A43052B02843FF4A8AE9BF8E42FDBF8DC1F59
:20AD200092070868497954BF012204228A40018C92B289B221EA02010184018C89B20A436E
:20AD4000062B02843FF490AE2E4A92F8701011F0020F916E0C684D79208C0CBF0121042140
:20AD6000A94089B280B220EA01002084208C80B20143082B21847FF477AE92F8FC30D2F8BC
:20AD8000F420116850790A8C9B074CBF0423012383409BB292B222EA03020A840A8C92B202
:20ADA00013430B8460E6DBF8202D10685479018C0422A24089B292B240E703991248582258
:20ADC00043F09AFD01960AE70024204605B0BDEC028BBDE8F08F9BF82C2602EB42020BEB7C
:20ADE000C202324492F8D9250D2A7FF4F6AE802389F81E30F3E601228BF8CA25C7F8A031D3
:20AE000033E600BF68290020D81E00202DE9F843037D01681F2B044608D94868A3F120057B
:20AE20002022AA40024206D1BDE8F883086820229A400242F8D0714A714E5268C6F8A4215C
:20AE400096F8A920A569DFF8D09112BB8C2202FB0592D2F8200DD2F8987DD0F80080386888
:20AE6000B2F824CD20F001003860B8F80C2092B222EA0C02A8F80C2099F87F200ABB1F2B49
:20AE800040F2A880A3F1200220239340CB60BDE8F8838C2202FB0592D2F8202D5069D2F865
:20AEA0000080026822F001020260B8F80C2022F480721204120CA8F80C2099F87F20002AF3
:20AEC000DDD08C2303FB05934E4AD3F8987D3B6823F001033B6000233B6097427B60BB6026
:20AEE000FB603B614FF021037B617ED0464B9F427FD038463CF082FA8C2303FB0593D6F8D4
:20AF0000A021012183F86C1D002A69D0B8F800303E499BB243F08003A8F800308C2303FB00
:20AF200005F54FF0FF332944C8F82C3040463CF0C7FB09EB05030022D3F8440DC3F83C2D4B
:20AF4000D3F8302D39680243D3F8480D0243D3F84C0D0243D3F8500D0243D3F8540D024337
:20AF6000D3F8580D0243D3F8640D0243D3F8680D02432748084002433A607969D3F85C2D8A
:20AF8000D3F8600D21F0070102430A437A61D3F8402D7A60D3F8342DBA60D3F8382DFA6011
:20AFA000D3F8982D16215160116841F001011160D3F8202DB3F8243D126891890B439BB2A9
:20AFC0000E4993814B68C6F8A831237D21681F2B3FF658AF202202FA03F38B60BDE8F883CE
:20AFE00011F086FCC6F8A00190E70A4B3D229A6082E74FF4746243F8202C7DE7001000E0ED
:20B00000602A00201060024028600240F42600203F801CF000600240681900202DE9F04775
:20B02000836882B0804613B11A689B8853835F4B5B68C3F30803002B40F0B380EFF31183BC
:20B04000002B40F0AE8011F02FFC0546574E584C584F05E011F028FC431BB3F57A7F30D2F5
:20B060007368C3F308031BB9EFF31183002BF1D0EFF31182102383F312884FF0E0210120E5
:20B08000D1F818C00B69DB0303D5C4F8AC01D1F818C0D7F868E4D4F8AC01D2B282F31188B5
:20B0A000D7F8B8144FF47A7202FB01F37044A3EB0C03B3FBF1F302FB0030431BB3F57A7FC6
:20B0C000CED3D8F8083013B11A689B881383374CDFF8E0A0364D0A2710266368C3F3080378
:20B0E000002B4BD1EFF31183002B47D111F0DCFB814606E011F0D8FBA0EB0903B3F57A7FBF
:20B1000030D26368C3F308031BB9EFF31183002BF0D0EFF3118286F312884FF0E021012083
:20B12000D1F818C00B69DB0344BFC5F8AC01D1F818C0DAF868E4D5F8AC01D2B282F31188E4
:20B14000DAF8B8144FF47A7202FB01F37044A3EB0C03B3FBF1F302FB0030A0EB0903B3F5E2
:20B160007A7FCED3013FB8D1D8F80030ADF804701B6A3BB1384602B0BDE8F08711F032FA69
